{
  "_format": "hh-sol-artifact-1",
  "contractName": "HealthInsuranceDApp",
  "sourceName": "contracts/HealthInsuranceDApp.sol",
  "abi": [
    {
      "inputs": [],
      "stateMutability": "nonpayable",
      "type": "constructor"
    },
    {
      "inputs": [],
      "name": "EnforcedPause",
      "type": "error"
    },
    {
      "inputs": [],
      "name": "ExpectedPause",
      "type": "error"
    },
    {
      "inputs": [
        {
          "internalType": "address",
          "name": "owner",
          "type": "address"
        }
      ],
      "name": "OwnableInvalidOwner",
      "type": "error"
    },
    {
      "inputs": [
        {
          "internalType": "address",
          "name": "account",
          "type": "address"
        }
      ],
      "name": "OwnableUnauthorizedAccount",
      "type": "error"
    },
    {
      "inputs": [],
      "name": "ReentrancyGuardReentrantCall",
      "type": "error"
    },
    {
      "anonymous": false,
      "inputs": [
        {
          "indexed": true,
          "internalType": "uint256",
          "name": "claimId",
          "type": "uint256"
        },
        {
          "indexed": false,
          "internalType": "enum HealthInsuranceDApp.ClaimStatus",
          "name": "status",
          "type": "uint8"
        },
        {
          "indexed": false,
          "internalType": "uint256",
          "name": "approvedAmount",
          "type": "uint256"
        }
      ],
      "name": "ClaimProcessed",
      "type": "event"
    },
    {
      "anonymous": false,
      "inputs": [
        {
          "indexed": true,
          "internalType": "uint256",
          "name": "claimId",
          "type": "uint256"
        },
        {
          "indexed": true,
          "internalType": "uint256",
          "name": "policyId",
          "type": "uint256"
        },
        {
          "indexed": true,
          "internalType": "address",
          "name": "claimant",
          "type": "address"
        },
        {
          "indexed": false,
          "internalType": "uint256",
          "name": "amount",
          "type": "uint256"
        }
      ],
      "name": "ClaimSubmitted",
      "type": "event"
    },
    {
      "anonymous": false,
      "inputs": [
        {
          "indexed": true,
          "internalType": "address",
          "name": "doctor",
          "type": "address"
        },
        {
          "indexed": false,
          "internalType": "bool",
          "name": "authorized",
          "type": "bool"
        }
      ],
      "name": "DoctorAuthorized",
      "type": "event"
    },
    {
      "anonymous": false,
      "inputs": [
        {
          "indexed": true,
          "internalType": "address",
          "name": "previousOwner",
          "type": "address"
        },
        {
          "indexed": true,
          "internalType": "address",
          "name": "newOwner",
          "type": "address"
        }
      ],
      "name": "OwnershipTransferred",
      "type": "event"
    },
    {
      "anonymous": false,
      "inputs": [
        {
          "indexed": false,
          "internalType": "address",
          "name": "account",
          "type": "address"
        }
      ],
      "name": "Paused",
      "type": "event"
    },
    {
      "anonymous": false,
      "inputs": [
        {
          "indexed": false,
          "internalType": "enum HealthInsuranceDApp.PlanType",
          "name": "planType",
          "type": "uint8"
        },
        {
          "indexed": false,
          "internalType": "uint256",
          "name": "oneTimePrice",
          "type": "uint256"
        },
        {
          "indexed": false,
          "internalType": "uint256",
          "name": "monthlyPrice",
          "type": "uint256"
        },
        {
          "indexed": false,
          "internalType": "uint256",
          "name": "coverageAmount",
          "type": "uint256"
        }
      ],
      "name": "PlanCreated",
      "type": "event"
    },
    {
      "anonymous": false,
      "inputs": [
        {
          "indexed": true,
          "internalType": "uint256",
          "name": "policyId",
          "type": "uint256"
        },
        {
          "indexed": true,
          "internalType": "address",
          "name": "policyholder",
          "type": "address"
        }
      ],
      "name": "PolicyCancelled",
      "type": "event"
    },
    {
      "anonymous": false,
      "inputs": [
        {
          "indexed": true,
          "internalType": "uint256",
          "name": "policyId",
          "type": "uint256"
        },
        {
          "indexed": true,
          "internalType": "address",
          "name": "policyholder",
          "type": "address"
        },
        {
          "indexed": false,
          "internalType": "enum HealthInsuranceDApp.PlanType",
          "name": "planType",
          "type": "uint8"
        },
        {
          "indexed": false,
          "internalType": "enum HealthInsuranceDApp.PaymentType",
          "name": "paymentType",
          "type": "uint8"
        }
      ],
      "name": "PolicyPurchased",
      "type": "event"
    },
    {
      "anonymous": false,
      "inputs": [
        {
          "indexed": true,
          "internalType": "uint256",
          "name": "policyId",
          "type": "uint256"
        },
        {
          "indexed": true,
          "internalType": "address",
          "name": "policyholder",
          "type": "address"
        },
        {
          "indexed": false,
          "internalType": "uint256",
          "name": "amount",
          "type": "uint256"
        },
        {
          "indexed": false,
          "internalType": "uint256",
          "name": "timestamp",
          "type": "uint256"
        }
      ],
      "name": "PremiumPaid",
      "type": "event"
    },
    {
      "anonymous": false,
      "inputs": [
        {
          "indexed": false,
          "internalType": "address",
          "name": "account",
          "type": "address"
        }
      ],
      "name": "Unpaused",
      "type": "event"
    },
    {
      "inputs": [
        {
          "internalType": "address",
          "name": "_doctor",
          "type": "address"
        },
        {
          "internalType": "bool",
          "name": "_authorized",
          "type": "bool"
        }
      ],
      "name": "authorizeDoctorAddress",
      "outputs": [],
      "stateMutability": "nonpayable",
      "type": "function"
    },
    {
      "inputs": [
        {
          "internalType": "address",
          "name": "",
          "type": "address"
        }
      ],
      "name": "authorizedDoctors",
      "outputs": [
        {
          "internalType": "bool",
          "name": "",
          "type": "bool"
        }
      ],
      "stateMutability": "view",
      "type": "function"
    },
    {
      "inputs": [
        {
          "internalType": "uint256",
          "name": "_policyId",
          "type": "uint256"
        }
      ],
      "name": "cancelPolicy",
      "outputs": [],
      "stateMutability": "nonpayable",
      "type": "function"
    },
    {
      "inputs": [
        {
          "internalType": "uint256",
          "name": "",
          "type": "uint256"
        }
      ],
      "name": "claims",
      "outputs": [
        {
          "internalType": "uint256",
          "name": "claimId",
          "type": "uint256"
        },
        {
          "internalType": "uint256",
          "name": "policyId",
          "type": "uint256"
        },
        {
          "internalType": "address",
          "name": "claimant",
          "type": "address"
        },
        {
          "internalType": "uint256",
          "name": "claimAmount",
          "type": "uint256"
        },
        {
          "internalType": "uint256",
          "name": "approvedAmount",
          "type": "uint256"
        },
        {
          "internalType": "enum HealthInsuranceDApp.ClaimStatus",
          "name": "status",
          "type": "uint8"
        },
        {
          "internalType": "uint256",
          "name": "submissionDate",
          "type": "uint256"
        },
        {
          "internalType": "uint256",
          "name": "processedDate",
          "type": "uint256"
        },
        {
          "internalType": "string",
          "name": "ipfsDocuments",
          "type": "string"
        },
        {
          "internalType": "string",
          "name": "description",
          "type": "string"
        }
      ],
      "stateMutability": "view",
      "type": "function"
    },
    {
      "inputs": [],
      "name": "getContractBalance",
      "outputs": [
        {
          "internalType": "uint256",
          "name": "",
          "type": "uint256"
        }
      ],
      "stateMutability": "view",
      "type": "function"
    },
    {
      "inputs": [
        {
          "internalType": "uint256",
          "name": "_policyId",
          "type": "uint256"
        }
      ],
      "name": "getPolicyClaims",
      "outputs": [
        {
          "internalType": "uint256[]",
          "name": "",
          "type": "uint256[]"
        }
      ],
      "stateMutability": "view",
      "type": "function"
    },
    {
      "inputs": [
        {
          "internalType": "uint256",
          "name": "_policyId",
          "type": "uint256"
        }
      ],
      "name": "getRemainingCoverage",
      "outputs": [
        {
          "internalType": "uint256",
          "name": "",
          "type": "uint256"
        }
      ],
      "stateMutability": "view",
      "type": "function"
    },
    {
      "inputs": [],
      "name": "getTotalClaims",
      "outputs": [
        {
          "internalType": "uint256",
          "name": "",
          "type": "uint256"
        }
      ],
      "stateMutability": "view",
      "type": "function"
    },
    {
      "inputs": [],
      "name": "getTotalPolicies",
      "outputs": [
        {
          "internalType": "uint256",
          "name": "",
          "type": "uint256"
        }
      ],
      "stateMutability": "view",
      "type": "function"
    },
    {
      "inputs": [
        {
          "internalType": "address",
          "name": "_user",
          "type": "address"
        }
      ],
      "name": "getUserPolicies",
      "outputs": [
        {
          "internalType": "uint256[]",
          "name": "",
          "type": "uint256[]"
        }
      ],
      "stateMutability": "view",
      "type": "function"
    },
    {
      "inputs": [
        {
          "internalType": "enum HealthInsuranceDApp.PlanType",
          "name": "",
          "type": "uint8"
        }
      ],
      "name": "insurancePlans",
      "outputs": [
        {
          "internalType": "enum HealthInsuranceDApp.PlanType",
          "name": "planType",
          "type": "uint8"
        },
        {
          "internalType": "uint256",
          "name": "oneTimePrice",
          "type": "uint256"
        },
        {
          "internalType": "uint256",
          "name": "monthlyPrice",
          "type": "uint256"
        },
        {
          "internalType": "uint256",
          "name": "coverageAmount",
          "type": "uint256"
        },
        {
          "internalType": "uint256",
          "name": "deductible",
          "type": "uint256"
        },
        {
          "internalType": "string",
          "name": "ipfsHash",
          "type": "string"
        },
        {
          "internalType": "bool",
          "name": "isActive",
          "type": "bool"
        }
      ],
      "stateMutability": "view",
      "type": "function"
    },
    {
      "inputs": [
        {
          "internalType": "uint256",
          "name": "_policyId",
          "type": "uint256"
        }
      ],
      "name": "isPolicyValid",
      "outputs": [
        {
          "internalType": "bool",
          "name": "",
          "type": "bool"
        }
      ],
      "stateMutability": "view",
      "type": "function"
    },
    {
      "inputs": [],
      "name": "owner",
      "outputs": [
        {
          "internalType": "address",
          "name": "",
          "type": "address"
        }
      ],
      "stateMutability": "view",
      "type": "function"
    },
    {
      "inputs": [],
      "name": "pause",
      "outputs": [],
      "stateMutability": "nonpayable",
      "type": "function"
    },
    {
      "inputs": [],
      "name": "paused",
      "outputs": [
        {
          "internalType": "bool",
          "name": "",
          "type": "bool"
        }
      ],
      "stateMutability": "view",
      "type": "function"
    },
    {
      "inputs": [
        {
          "internalType": "uint256",
          "name": "_policyId",
          "type": "uint256"
        }
      ],
      "name": "payMonthlyPremium",
      "outputs": [],
      "stateMutability": "payable",
      "type": "function"
    },
    {
      "inputs": [
        {
          "internalType": "uint256",
          "name": "",
          "type": "uint256"
        }
      ],
      "name": "policies",
      "outputs": [
        {
          "internalType": "uint256",
          "name": "policyId",
          "type": "uint256"
        },
        {
          "internalType": "address",
          "name": "policyholder",
          "type": "address"
        },
        {
          "internalType": "enum HealthInsuranceDApp.PlanType",
          "name": "planType",
          "type": "uint8"
        },
        {
          "internalType": "enum HealthInsuranceDApp.PaymentType",
          "name": "paymentType",
          "type": "uint8"
        },
        {
          "internalType": "uint256",
          "name": "coverageAmount",
          "type": "uint256"
        },
        {
          "internalType": "uint256",
          "name": "deductible",
          "type": "uint256"
        },
        {
          "internalType": "uint256",
          "name": "premium",
          "type": "uint256"
        },
        {
          "internalType": "uint256",
          "name": "startDate",
          "type": "uint256"
        },
        {
          "internalType": "uint256",
          "name": "endDate",
          "type": "uint256"
        },
        {
          "internalType": "uint256",
          "name": "lastPaymentDate",
          "type": "uint256"
        },
        {
          "internalType": "enum HealthInsuranceDApp.PolicyStatus",
          "name": "status",
          "type": "uint8"
        },
        {
          "internalType": "string",
          "name": "ipfsMetadata",
          "type": "string"
        },
        {
          "internalType": "uint256",
          "name": "totalPaid",
          "type": "uint256"
        },
        {
          "internalType": "uint256",
          "name": "claimsUsed",
          "type": "uint256"
        }
      ],
      "stateMutability": "view",
      "type": "function"
    },
    {
      "inputs": [
        {
          "internalType": "uint256",
          "name": "",
          "type": "uint256"
        },
        {
          "internalType": "uint256",
          "name": "",
          "type": "uint256"
        }
      ],
      "name": "policyClaims",
      "outputs": [
        {
          "internalType": "uint256",
          "name": "",
          "type": "uint256"
        }
      ],
      "stateMutability": "view",
      "type": "function"
    },
    {
      "inputs": [
        {
          "internalType": "uint256",
          "name": "_claimId",
          "type": "uint256"
        },
        {
          "internalType": "enum HealthInsuranceDApp.ClaimStatus",
          "name": "_status",
          "type": "uint8"
        },
        {
          "internalType": "uint256",
          "name": "_approvedAmount",
          "type": "uint256"
        }
      ],
      "name": "processClaim",
      "outputs": [],
      "stateMutability": "nonpayable",
      "type": "function"
    },
    {
      "inputs": [
        {
          "internalType": "enum HealthInsuranceDApp.PlanType",
          "name": "_planType",
          "type": "uint8"
        },
        {
          "internalType": "enum HealthInsuranceDApp.PaymentType",
          "name": "_paymentType",
          "type": "uint8"
        },
        {
          "internalType": "string",
          "name": "_ipfsMetadata",
          "type": "string"
        }
      ],
      "name": "purchasePolicy",
      "outputs": [],
      "stateMutability": "payable",
      "type": "function"
    },
    {
      "inputs": [],
      "name": "renounceOwnership",
      "outputs": [],
      "stateMutability": "nonpayable",
      "type": "function"
    },
    {
      "inputs": [
        {
          "internalType": "uint256",
          "name": "_policyId",
          "type": "uint256"
        },
        {
          "internalType": "uint256",
          "name": "_claimAmount",
          "type": "uint256"
        },
        {
          "internalType": "string",
          "name": "_ipfsDocuments",
          "type": "string"
        },
        {
          "internalType": "string",
          "name": "_description",
          "type": "string"
        }
      ],
      "name": "submitClaim",
      "outputs": [],
      "stateMutability": "nonpayable",
      "type": "function"
    },
    {
      "inputs": [
        {
          "internalType": "address",
          "name": "newOwner",
          "type": "address"
        }
      ],
      "name": "transferOwnership",
      "outputs": [],
      "stateMutability": "nonpayable",
      "type": "function"
    },
    {
      "inputs": [],
      "name": "unpause",
      "outputs": [],
      "stateMutability": "nonpayable",
      "type": "function"
    },
    {
      "inputs": [
        {
          "internalType": "enum HealthInsuranceDApp.PlanType",
          "name": "_planType",
          "type": "uint8"
        },
        {
          "internalType": "uint256",
          "name": "_oneTimePrice",
          "type": "uint256"
        },
        {
          "internalType": "uint256",
          "name": "_monthlyPrice",
          "type": "uint256"
        },
        {
          "internalType": "uint256",
          "name": "_coverageAmount",
          "type": "uint256"
        },
        {
          "internalType": "uint256",
          "name": "_deductible",
          "type": "uint256"
        }
      ],
      "name": "updateInsurancePlan",
      "outputs": [],
      "stateMutability": "nonpayable",
      "type": "function"
    },
    {
      "inputs": [
        {
          "internalType": "enum HealthInsuranceDApp.PlanType",
          "name": "_planType",
          "type": "uint8"
        },
        {
          "internalType": "string",
          "name": "_ipfsHash",
          "type": "string"
        }
      ],
      "name": "updatePlanMetadata",
      "outputs": [],
      "stateMutability": "nonpayable",
      "type": "function"
    },
    {
      "inputs": [
        {
          "internalType": "address",
          "name": "",
          "type": "address"
        },
        {
          "internalType": "uint256",
          "name": "",
          "type": "uint256"
        }
      ],
      "name": "userPolicies",
      "outputs": [
        {
          "internalType": "uint256",
          "name": "",
          "type": "uint256"
        }
      ],
      "stateMutability": "view",
      "type": "function"
    },
    {
      "inputs": [],
      "name": "withdraw",
      "outputs": [],
      "stateMutability": "nonpayable",
      "type": "function"
    },
    {
      "stateMutability": "payable",
      "type": "receive"
    }
  ],
  "bytecode": "0x60806040523480156200001157600080fd5b5060017f9b779b17422d0df92223018b32b4d1fa46e071723d6817e2486d003becc55f005533806200005d57604051631e4fbdf760e01b81526000600482015260240160405180910390fd5b620000688162000079565b5062000073620000c9565b620005ae565b600080546001600160a01b038381166001600160a01b0319831681178455604051919092169283917f8be0079c531659141344cd1fd0a4f28419497f9722a3daafe3b4186f6b6457e09190a35050565b6040805160e081018252600080825267016345785d8a0000602080840191909152662386f26fc1000083850152678ac7230489e8000060608401526706f05b59d3b200006080840152835180820190945281845260a0830193909352600160c08301819052908052600390925280517f3617319a054d772f909f7c479a2cebe5066e836a939412e32403c99029b92eff805492939092839160ff19909116908360028111156200017d576200017d62000427565b02179055506020820151600182015560408201516002820155606082015160038201556080820151600482015560a08201516005820190620001c09082620004e2565b5060c091909101516006909101805460ff19169115159190911790556040805160e0810190915280600181526020016703782dace9d9000081526020016658d15e17628000815260200168015af1d78b58c4000081526020016703782dace9d9000081526020016040518060200160405280600081525081526020016001151581525060036000600160028111156200025d576200025d62000427565b600281111562000271576200027162000427565b8152602081019190915260400160002081518154829060ff19166001836002811115620002a257620002a262000427565b02179055506020820151600182015560408201516002820155606082015160038201556080820151600482015560a08201516005820190620002e59082620004e2565b5060c091909101516006909101805460ff19169115159190911790556040805160e0810190915280600281526020016706f05b59d3b20000815260200166b1a2bc2ec5000081526020016802b5e3af16b1880000815260200167016345785d8a00008152602001604051806020016040528060008152508152602001600115158152506003600060028081111562000381576200038162000427565b600281111562000395576200039562000427565b8152602081019190915260400160002081518154829060ff19166001836002811115620003c657620003c662000427565b02179055506020820151600182015560408201516002820155606082015160038201556080820151600482015560a08201516005820190620004099082620004e2565b5060c091909101516006909101805460ff1916911515919091179055565b634e487b7160e01b600052602160045260246000fd5b634e487b7160e01b600052604160045260246000fd5b600181811c908216806200046857607f821691505b6020821081036200048957634e487b7160e01b600052602260045260246000fd5b50919050565b601f821115620004dd57600081815260208120601f850160051c81016020861015620004b85750805b601f850160051c820191505b81811015620004d957828155600101620004c4565b5050505b505050565b81516001600160401b03811115620004fe57620004fe6200043d565b62000516816200050f845462000453565b846200048f565b602080601f8311600181146200054e5760008415620005355750858301515b600019600386901b1c1916600185901b178555620004d9565b600085815260208120601f198616915b828110156200057f578886015182559484019460019091019084016200055e565b50858210156200059e5787850151600019600388901b60f8161c191681555b5050505050600190811b01905550565b612abe80620005be6000396000f3fe6080604052600436106101bb5760003560e01c80638456cb59116100ec578063c58346601161008a578063d291babd11610064578063d291babd146104b9578063d3e89483146104d9578063e096b3ac14610513578063f2fde38b1461054657600080fd5b8063c583466014610471578063ce7a59b214610491578063d246dd69146104a457600080fd5b8063a888c2cd116100c6578063a888c2cd146103db578063b20e8bcc14610411578063b9ac2e0214610431578063c530d3921461045157600080fd5b80638456cb591461037e5780638da5cb5b146103935780639768a47b146103bb57600080fd5b806351aa360a1161015957806367482caa1161013357806367482caa146103235780636f9fb98a14610343578063715018a6146103565780637f92cc7b1461036b57600080fd5b806351aa360a146102c4578063560eb394146102e45780635c975abb1461030457600080fd5b80633ccfd60b116101955780633ccfd60b146102585780633d36adc51461026f5780633e2045ea1461028f5780633f4ba83a146102af57600080fd5b806316daa23b146101c757806319ac4614146101eb5780632d3975f01461021857600080fd5b366101c257005b600080fd5b3480156101d357600080fd5b506002545b6040519081526020015b60405180910390f35b3480156101f757600080fd5b5061020b6102063660046122a5565b610566565b6040516101e291906122c0565b34801561022457600080fd5b506102486102333660046122a5565b60086020526000908152604090205460ff1681565b60405190151581526020016101e2565b34801561026457600080fd5b5061026d6105d2565b005b34801561027b57600080fd5b506101d861028a366004612304565b610680565b34801561029b57600080fd5b5061020b6102aa36600461232e565b6106b1565b3480156102bb57600080fd5b5061026d610711565b3480156102d057600080fd5b506101d86102df36600461232e565b610721565b3480156102f057600080fd5b506101d86102ff366004612347565b61090e565b34801561031057600080fd5b50600054600160a01b900460ff16610248565b34801561032f57600080fd5b5061024861033e36600461232e565b61092a565b34801561034f57600080fd5b50476101d8565b34801561036257600080fd5b5061026d610b30565b61026d61037936600461232e565b610b42565b34801561038a57600080fd5b5061026d610f61565b34801561039f57600080fd5b506000546040516001600160a01b0390911681526020016101e2565b3480156103c757600080fd5b5061026d6103d6366004612369565b610f71565b3480156103e757600080fd5b506103fb6103f636600461232e565b610fd8565b6040516101e29a99989796959493929190612411565b34801561041d57600080fd5b5061026d61042c36600461232e565b61114b565b34801561043d57600080fd5b5061026d61044c3660046124a0565b611228565b34801561045d57600080fd5b5061026d61046c366004612585565b6112cf565b34801561047d57600080fd5b5061026d61048c3660046125d3565b611321565b61026d61049f36600461260f565b6116a0565b3480156104b057600080fd5b506001546101d8565b3480156104c557600080fd5b5061026d6104d4366004612673565b611b92565b3480156104e557600080fd5b506104f96104f436600461232e565b611ec3565b6040516101e29e9d9c9b9a9998979695949392919061270e565b34801561051f57600080fd5b5061053361052e3660046127a8565b611fc9565b6040516101e297969594939291906127c3565b34801561055257600080fd5b5061026d6105613660046122a5565b612098565b6001600160a01b0381166000908152600560209081526040918290208054835181840281018401909452808452606093928301828280156105c657602002820191906000526020600020905b8154815260200190600101908083116105b2575b50505050509050919050565b6105da6120d3565b6105e2612100565b478061062c5760405162461bcd60e51b81526020600482015260146024820152734e6f2066756e647320746f20776974686472617760601b60448201526064015b60405180910390fd5b600080546040516001600160a01b039091169183156108fc02918491818181858888f19350505050158015610665573d6000803e3d6000fd5b505061067e6001600080516020612a6983398151915255565b565b6005602052816000526040600020818154811061069c57600080fd5b90600052602060002001600091509150505481565b6000818152600760209081526040918290208054835181840281018401909452808452606093928301828280156105c657602002820191906000526020600020908154815260200190600101908083116105b25750505050509050919050565b6107196120d3565b61067e61211c565b600081815260046020908152604080832081516101c0810183528154815260018201546001600160a01b0381169482019490945284939092830190600160a01b900460ff166002811115610777576107776123a5565b6002811115610788576107886123a5565b81526020016001820160159054906101000a900460ff1660018111156107b0576107b06123a5565b60018111156107c1576107c16123a5565b81526002820154602082015260038083015460408301526004830154606083015260058301546080830152600683015460a0830152600783015460c0830152600883015460e09092019160ff169081111561081e5761081e6123a5565b600381111561082f5761082f6123a5565b815260200160098201805461084390612811565b80601f016020809104026020016040519081016040528092919081815260200182805461086f90612811565b80156108bc5780601f10610891576101008083540402835291602001916108bc565b820191906000526020600020905b81548152906001019060200180831161089f57829003601f168201915b50505050508152602001600a8201548152602001600b820154815250509050806101a001518160800151116108f2576000610907565b806101a0015181608001516109079190612861565b9392505050565b6007602052816000526040600020818154811061069c57600080fd5b600081158061093a575060015482115b1561094757506000919050565b600082815260046020908152604080832081516101c0810183528154815260018201546001600160a01b03811694820194909452929091830190600160a01b900460ff16600281111561099c5761099c6123a5565b60028111156109ad576109ad6123a5565b81526020016001820160159054906101000a900460ff1660018111156109d5576109d56123a5565b60018111156109e6576109e66123a5565b81526002820154602082015260038083015460408301526004830154606083015260058301546080830152600683015460a0830152600783015460c0830152600883015460e09092019160ff1690811115610a4357610a436123a5565b6003811115610a5457610a546123a5565b8152602001600982018054610a6890612811565b80601f0160208091040260200160405190810160405280929190818152602001828054610a9490612811565b8015610ae15780601f10610ab657610100808354040283529160200191610ae1565b820191906000526020600020905b815481529060010190602001808311610ac457829003601f168201915b5050509183525050600a8201546020820152600b90910154604090910152905060008161014001516003811115610b1a57610b1a6123a5565b1480156109075750610100015142111592915050565b610b386120d3565b61067e6000612171565b610b4a612100565b60008181526004602052604090206001015481906001600160a01b03163314610b855760405162461bcd60e51b81526004016106239061287a565b81600081118015610b9857506001548111155b610bd85760405162461bcd60e51b8152602060048201526011602482015270125b9d985b1a59081c1bdb1a58de481251607a1b6044820152606401610623565b60008181526004602052604081206008015460ff166003811115610bfe57610bfe6123a5565b14610c1b5760405162461bcd60e51b8152600401610623906128a8565b600083815260046020526040902060018082810154600160a81b900460ff1690811115610c4a57610c4a6123a5565b14610c975760405162461bcd60e51b815260206004820152601c60248201527f4e6f742061206d6f6e74686c79207061796d656e7420706f6c696379000000006044820152606401610623565b80600601544211610ce05760405162461bcd60e51b8152602060048201526013602482015272141c995b5a5d5b481b9bdd08191d59481e595d606a1b6044820152606401610623565b6000600360008360010160149054906101000a900460ff166002811115610d0957610d096123a5565b6002811115610d1a57610d1a6123a5565b815260208101919091526040908101600020815160e081019092528054829060ff166002811115610d4d57610d4d6123a5565b6002811115610d5e57610d5e6123a5565b815260200160018201548152602001600282015481526020016003820154815260200160048201548152602001600582018054610d9a90612811565b80601f0160208091040260200160405190810160405280929190818152602001828054610dc690612811565b8015610e135780601f10610de857610100808354040283529160200191610e13565b820191906000526020600020905b815481529060010190602001808311610df657829003601f168201915b50505091835250506006919091015460ff1615156020909101526040810151909150341015610e845760405162461bcd60e51b815260206004820152601c60248201527f496e73756666696369656e74207072656d69756d207061796d656e74000000006044820152606401610623565b610e914262278d006128d3565b6006830155426007830155600a82018054349190600090610eb39084906128d3565b90915550506040810151341115610f0357604081015133906108fc90610ed99034612861565b6040518115909202916000818181858888f19350505050158015610f01573d6000803e3d6000fd5b505b6040808201518151908152426020820152339187917f4df9daa65e5a81f6ce207e146656dd905389f2edfac65955baa9e96664328713910160405180910390a350505050610f5e6001600080516020612a6983398151915255565b50565b610f696120d3565b61067e6121c1565b610f796120d3565b6001600160a01b038216600081815260086020908152604091829020805460ff191685151590811790915591519182527ff3723224ccf3ef7268a98bbc2481e8e48c482645d932b1eb7daa63664d604659910160405180910390a25050565b6006602081905260009182526040909120805460018201546002830154600384015460048501546005860154968601546007870154600888018054979996986001600160a01b03909616979496939560ff909416949293919261103a90612811565b80601f016020809104026020016040519081016040528092919081815260200182805461106690612811565b80156110b35780601f10611088576101008083540402835291602001916110b3565b820191906000526020600020905b81548152906001019060200180831161109657829003601f168201915b5050505050908060090180546110c890612811565b80601f01602080910402602001604051908101604052809291908181526020018280546110f490612811565b80156111415780601f1061111657610100808354040283529160200191611141565b820191906000526020600020905b81548152906001019060200180831161112457829003601f168201915b505050505090508a565b611153612100565b60008181526004602052604090206001015481906001600160a01b0316331461118e5760405162461bcd60e51b81526004016106239061287a565b600082815260046020526040812090600882015460ff1660038111156111b6576111b66123a5565b146111d35760405162461bcd60e51b8152600401610623906128a8565b60088101805460ff19166002179055604051339084907f7ccb895829fd342f252a2a7ec521b68a89d4fe7f83acc57725b5b358c290fca390600090a35050610f5e6001600080516020612a6983398151915255565b6112306120d3565b600060036000876002811115611248576112486123a5565b6002811115611259576112596123a5565b8152602081019190915260409081016000206001810187905560028101869055600381018590556004810184905590519091507f798e8b3bfe459730fb3556eb9d5cee802909aa2b7187682c879e8eef2a938182906112bf9088908890889088906128e6565b60405180910390a1505050505050565b6112d76120d3565b80600360008460028111156112ee576112ee6123a5565b60028111156112ff576112ff6123a5565b8152602001908152602001600020600501908161131c919061295d565b505050565b611329612100565b6000546001600160a01b031633148061135157503360009081526008602052604090205460ff165b61139d5760405162461bcd60e51b815260206004820181905260248201527f4e6f7420617574686f72697a656420746f2070726f6365737320636c61696d736044820152606401610623565b6000831180156113af57506002548311155b6113ee5760405162461bcd60e51b815260206004820152601060248201526f125b9d985b1a590818db185a5b48125160821b6044820152606401610623565b600083815260066020526040812090600582015460ff166003811115611416576114166123a5565b146114635760405162461bcd60e51b815260206004820152601760248201527f436c61696d20616c72656164792070726f6365737365640000000000000000006044820152606401610623565b60018082015460009081526004602052604090209084600381111561148a5761148a6123a5565b0361161257600083116114ee5760405162461bcd60e51b815260206004820152602660248201527f417070726f76656420616d6f756e74206d75737420626520677265617465722060448201526507468616e20360d41b6064820152608401610623565b81600301548311156115425760405162461bcd60e51b815260206004820152601d60248201527f417070726f76656420616d6f756e74206578636565647320636c61696d0000006044820152606401610623565b6003810154600b820154600283015460009161155d91612861565b9050600082861161156f576000611579565b6115798387612861565b9050818111156115865750805b8085600401819055508084600b0160008282546115a391906128d3565b9091555050801561160a5760058501805460ff1916600117905560028501546040516001600160a01b03909116906108fc8315029083906000818181858888f193505050501580156115f9573d6000803e3d6000fd5b5060058501805460ff191660031790555b505050611639565b60058201805485919060ff19166001836003811115611633576116336123a5565b02179055505b4260078301556005820154600483015460405187927f131884885e3b15c22fcaa4e2b49df807c03ab9e54bc149f6447e3c9166ce88149261167f9260ff90921691612a1d565b60405180910390a2505061131c6001600080516020612a6983398151915255565b6116a8612100565b6116b0612204565b6000600360008560028111156116c8576116c86123a5565b60028111156116d9576116d96123a5565b815260208101919091526040908101600020815160e081019092528054829060ff16600281111561170c5761170c6123a5565b600281111561171d5761171d6123a5565b81526020016001820154815260200160028201548152602001600382015481526020016004820154815260200160058201805461175990612811565b80601f016020809104026020016040519081016040528092919081815260200182805461178590612811565b80156117d25780601f106117a7576101008083540402835291602001916117d2565b820191906000526020600020905b8154815290600101906020018083116117b557829003601f168201915b50505091835250506006919091015460ff16151560209091015260c08101519091506118355760405162461bcd60e51b8152602060048201526012602482015271506c616e206e6f7420617661696c61626c6560701b6044820152606401610623565b6000808085600181111561184b5761184b6123a5565b0361186157505060208101516301e1338061186d565b5050604081015162278d005b813410156118b45760405162461bcd60e51b8152602060048201526014602482015273125b9cdd59999a58da595b9d081c185e5b595b9d60621b6044820152606401610623565b600180549060006118c483612a34565b9091555050600154604080516101c0810182528281523360208201529081018860028111156118f5576118f56123a5565b815260200187600181111561190c5761190c6123a5565b81526020018560600151815260200185608001518152602001848152602001428152602001834261193d91906128d3565b81524260208201526040016000815260208082018890523460408084019190915260006060909301839052848352600482529182902083518155908301516001820180546001600160a01b039092166001600160a01b031983168117825593850151929390916001600160a81b03191617600160a01b8360028111156119c5576119c56123a5565b021790555060608201518160010160156101000a81548160ff021916908360018111156119f4576119f46123a5565b02179055506080820151816002015560a0820151816003015560c0820151816004015560e08201518160050155610100820151816006015561012082015181600701556101408201518160080160006101000a81548160ff02191690836003811115611a6257611a626123a5565b02179055506101608201516009820190611a7c908261295d565b50610180820151600a8201556101a090910151600b909101553360009081526005602090815260408220805460018101825590835291200181905534831015611af757336108fc611acd8534612861565b6040518115909202916000818181858888f19350505050158015611af5573d6000803e3d6000fd5b505b336001600160a01b0316817fbfca7df20367ab8eb88d64263e6b75164560fc3a651438fe5cea0e31f822b3988989604051611b33929190612a4d565b60405180910390a360408051848152426020820152339183917f4df9daa65e5a81f6ce207e146656dd905389f2edfac65955baa9e96664328713910160405180910390a35050505061131c6001600080516020612a6983398151915255565b611b9a612100565b60008481526004602052604090206001015484906001600160a01b03163314611bd55760405162461bcd60e51b81526004016106239061287a565b84600081118015611be857506001548111155b611c285760405162461bcd60e51b8152602060048201526011602482015270125b9d985b1a59081c1bdb1a58de481251607a1b6044820152606401610623565b60008181526004602052604081206008015460ff166003811115611c4e57611c4e6123a5565b14611c6b5760405162461bcd60e51b8152600401610623906128a8565b60008511611cc75760405162461bcd60e51b815260206004820152602360248201527f436c61696d20616d6f756e74206d75737420626520677265617465722074686160448201526206e20360ec1b6064820152608401610623565b600086815260046020526040902060060154421115611d195760405162461bcd60e51b815260206004820152600e60248201526d141bdb1a58de48195e1c1a5c995960921b6044820152606401610623565b60028054906000611d2983612a34565b909155505060028054604080516101408101825282815260208082018b815233838501908152606084018c815260006080860181815260a087018281524260c089015260e0880183905261010088018f905261012088018e90528983526006909652969020855181559251600180850191909155915197830180546001600160a01b0319166001600160a01b039099169890981790975595516003808301919091559351600482015590516005820180549596939592949193909260ff1916918490811115611dfa57611dfa6123a5565b021790555060c0820151600682015560e082015160078201556101008201516008820190611e28908261295d565b506101208201516009820190611e3e908261295d565b505050600087815260076020908152604080832080546001810182559084529190922001829055513390889083907f3a30d1c4069e097873e77443df9683e8de5c7ba3674315b8670a0211e313019590611e9b908b815260200190565b60405180910390a4505050611ebd6001600080516020612a6983398151915255565b50505050565b60046020819052600091825260409091208054600182015460028301546003840154948401546005850154600686015460078701546008880154600989018054989a6001600160a01b0389169a60ff600160a01b8b0481169b600160a81b909b0481169a92989796959416929091611f3a90612811565b80601f0160208091040260200160405190810160405280929190818152602001828054611f6690612811565b8015611fb35780601f10611f8857610100808354040283529160200191611fb3565b820191906000526020600020905b815481529060010190602001808311611f9657829003601f168201915b50505050509080600a01549080600b015490508e565b600360208190526000918252604090912080546001820154600283015493830154600484015460058501805460ff90951696939593949293919261200c90612811565b80601f016020809104026020016040519081016040528092919081815260200182805461203890612811565b80156120855780601f1061205a57610100808354040283529160200191612085565b820191906000526020600020905b81548152906001019060200180831161206857829003601f168201915b5050506006909301549192505060ff1687565b6120a06120d3565b6001600160a01b0381166120ca57604051631e4fbdf760e01b815260006004820152602401610623565b610f5e81612171565b6000546001600160a01b0316331461067e5760405163118cdaa760e01b8152336004820152602401610623565b61210861222f565b6002600080516020612a6983398151915255565b61212461225f565b6000805460ff60a01b191690557f5db9ee0a495bf2e6ff9c91a7834c1ba4fdd244a5e8aa4e537bd38aeae4b073aa335b6040516001600160a01b03909116815260200160405180910390a1565b600080546001600160a01b038381166001600160a01b0319831681178455604051919092169283917f8be0079c531659141344cd1fd0a4f28419497f9722a3daafe3b4186f6b6457e09190a35050565b6121c9612204565b6000805460ff60a01b1916600160a01b1790557f62e78cea01bee320cd4e420270b5ea74000d11b0c9f74754ebdbfc544b05a2586121543390565b600054600160a01b900460ff161561067e5760405163d93c066560e01b815260040160405180910390fd5b600080516020612a698339815191525460020361067e57604051633ee5aeb560e01b815260040160405180910390fd5b600054600160a01b900460ff1661067e57604051638dfc202b60e01b815260040160405180910390fd5b80356001600160a01b03811681146122a057600080fd5b919050565b6000602082840312156122b757600080fd5b61090782612289565b6020808252825182820181905260009190848201906040850190845b818110156122f8578351835292840192918401916001016122dc565b50909695505050505050565b6000806040838503121561231757600080fd5b61232083612289565b946020939093013593505050565b60006020828403121561234057600080fd5b5035919050565b6000806040838503121561235a57600080fd5b50508035926020909101359150565b6000806040838503121561237c57600080fd5b61238583612289565b91506020830135801515811461239a57600080fd5b809150509250929050565b634e487b7160e01b600052602160045260246000fd5b60048110610f5e57610f5e6123a5565b6000815180845260005b818110156123f1576020818501810151868301820152016123d5565b506000602082860101526020601f19601f83011685010191505092915050565b8a8152602081018a90526001600160a01b038916604082015260608101889052608081018790526000610140612446886123bb565b8760a08401528660c08401528560e08401528061010084015261246b818401866123cb565b905082810361012084015261248081856123cb565b9d9c50505050505050505050505050565b8035600381106122a057600080fd5b600080600080600060a086880312156124b857600080fd5b6124c186612491565b97602087013597506040870135966060810135965060800135945092505050565b634e487b7160e01b600052604160045260246000fd5b600082601f83011261250957600080fd5b813567ffffffffffffffff80821115612524576125246124e2565b604051601f8301601f19908116603f0116810190828211818310171561254c5761254c6124e2565b8160405283815286602085880101111561256557600080fd5b836020870160208301376000602085830101528094505050505092915050565b6000806040838503121561259857600080fd5b6125a183612491565b9150602083013567ffffffffffffffff8111156125bd57600080fd5b6125c9858286016124f8565b9150509250929050565b6000806000606084860312156125e857600080fd5b833592506020840135600481106125fe57600080fd5b929592945050506040919091013590565b60008060006060848603121561262457600080fd5b61262d84612491565b925060208401356002811061264157600080fd5b9150604084013567ffffffffffffffff81111561265d57600080fd5b612669868287016124f8565b9150509250925092565b6000806000806080858703121561268957600080fd5b8435935060208501359250604085013567ffffffffffffffff808211156126af57600080fd5b6126bb888389016124f8565b935060608701359150808211156126d157600080fd5b506126de878288016124f8565b91505092959194509250565b600381106126fa576126fa6123a5565b9052565b600281106126fa576126fa6123a5565b8e81526001600160a01b038e16602082015261272d604082018e6126ea565b61273a606082018d6126fe565b8a60808201528960a08201528860c08201528760e08201528661010082015285610120820152612769856123bb565b846101408201526101c061016082015260006127896101c08301866123cb565b610180830194909452506101a001529c9b505050505050505050505050565b6000602082840312156127ba57600080fd5b61090782612491565b6127cd81896126ea565b86602082015285604082015284606082015283608082015260e060a082015260006127fb60e08301856123cb565b905082151560c083015298975050505050505050565b600181811c9082168061282557607f821691505b60208210810361284557634e487b7160e01b600052602260045260246000fd5b50919050565b634e487b7160e01b600052601160045260246000fd5b818103818111156128745761287461284b565b92915050565b6020808252601490820152732737ba103a3432903837b634b1bcb437b63232b960611b604082015260600190565b602080825260119082015270506f6c696379206e6f742061637469766560781b604082015260600190565b808201808211156128745761287461284b565b608081016128f482876126ea565b84602083015283604083015282606083015295945050505050565b601f82111561131c57600081815260208120601f850160051c810160208610156129365750805b601f850160051c820191505b8181101561295557828155600101612942565b505050505050565b815167ffffffffffffffff811115612977576129776124e2565b61298b816129858454612811565b8461290f565b602080601f8311600181146129c057600084156129a85750858301515b600019600386901b1c1916600185901b178555612955565b600085815260208120601f198616915b828110156129ef578886015182559484019460019091019084016129d0565b5085821015612a0d5787850151600019600388901b60f8161c191681555b5050505050600190811b01905550565b60408101612a2a846123bb565b9281526020015290565b600060018201612a4657612a4661284b565b5060010190565b60408101612a5b82856126ea565b61090760208301846126fe56fe9b779b17422d0df92223018b32b4d1fa46e071723d6817e2486d003becc55f00a264697066735822122025869f9cc3f8367f358e137d78f2e85c4ef7a36a2c0ee051ef3a0d309561b7f564736f6c63430008140033",
  "linkReferences": {},
  "deployedLinkReferences": {}
}